{
  "contractName": "Marmal",
  "abi": [
    {
      "inputs": [],
      "stateMutability": "nonpayable",
      "type": "constructor"
    },
    {
      "anonymous": false,
      "inputs": [
        {
          "indexed": true,
          "internalType": "address",
          "name": "owner",
          "type": "address"
        },
        {
          "indexed": true,
          "internalType": "address",
          "name": "approved",
          "type": "address"
        },
        {
          "indexed": true,
          "internalType": "uint256",
          "name": "tokenId",
          "type": "uint256"
        }
      ],
      "name": "Approval",
      "type": "event"
    },
    {
      "anonymous": false,
      "inputs": [
        {
          "indexed": true,
          "internalType": "address",
          "name": "owner",
          "type": "address"
        },
        {
          "indexed": true,
          "internalType": "address",
          "name": "operator",
          "type": "address"
        },
        {
          "indexed": false,
          "internalType": "bool",
          "name": "approved",
          "type": "bool"
        }
      ],
      "name": "ApprovalForAll",
      "type": "event"
    },
    {
      "anonymous": false,
      "inputs": [
        {
          "indexed": true,
          "internalType": "address",
          "name": "previousOwner",
          "type": "address"
        },
        {
          "indexed": true,
          "internalType": "address",
          "name": "newOwner",
          "type": "address"
        }
      ],
      "name": "OwnershipTransferred",
      "type": "event"
    },
    {
      "anonymous": false,
      "inputs": [
        {
          "indexed": true,
          "internalType": "address",
          "name": "from",
          "type": "address"
        },
        {
          "indexed": true,
          "internalType": "address",
          "name": "to",
          "type": "address"
        },
        {
          "indexed": true,
          "internalType": "uint256",
          "name": "tokenId",
          "type": "uint256"
        }
      ],
      "name": "Transfer",
      "type": "event"
    },
    {
      "inputs": [
        {
          "internalType": "address",
          "name": "to",
          "type": "address"
        },
        {
          "internalType": "uint256",
          "name": "tokenId",
          "type": "uint256"
        }
      ],
      "name": "approve",
      "outputs": [],
      "stateMutability": "nonpayable",
      "type": "function"
    },
    {
      "inputs": [
        {
          "internalType": "address",
          "name": "owner",
          "type": "address"
        }
      ],
      "name": "balanceOf",
      "outputs": [
        {
          "internalType": "uint256",
          "name": "",
          "type": "uint256"
        }
      ],
      "stateMutability": "view",
      "type": "function",
      "constant": true
    },
    {
      "inputs": [
        {
          "internalType": "uint256",
          "name": "tokenId",
          "type": "uint256"
        }
      ],
      "name": "getApproved",
      "outputs": [
        {
          "internalType": "address",
          "name": "",
          "type": "address"
        }
      ],
      "stateMutability": "view",
      "type": "function",
      "constant": true
    },
    {
      "inputs": [
        {
          "internalType": "address",
          "name": "owner",
          "type": "address"
        },
        {
          "internalType": "address",
          "name": "operator",
          "type": "address"
        }
      ],
      "name": "isApprovedForAll",
      "outputs": [
        {
          "internalType": "bool",
          "name": "",
          "type": "bool"
        }
      ],
      "stateMutability": "view",
      "type": "function",
      "constant": true
    },
    {
      "inputs": [],
      "name": "name",
      "outputs": [
        {
          "internalType": "string",
          "name": "",
          "type": "string"
        }
      ],
      "stateMutability": "view",
      "type": "function",
      "constant": true
    },
    {
      "inputs": [],
      "name": "owner",
      "outputs": [
        {
          "internalType": "address",
          "name": "",
          "type": "address"
        }
      ],
      "stateMutability": "view",
      "type": "function",
      "constant": true
    },
    {
      "inputs": [],
      "name": "renounceOwnership",
      "outputs": [],
      "stateMutability": "nonpayable",
      "type": "function"
    },
    {
      "inputs": [
        {
          "internalType": "address",
          "name": "from",
          "type": "address"
        },
        {
          "internalType": "address",
          "name": "to",
          "type": "address"
        },
        {
          "internalType": "uint256",
          "name": "tokenId",
          "type": "uint256"
        }
      ],
      "name": "safeTransferFrom",
      "outputs": [],
      "stateMutability": "nonpayable",
      "type": "function"
    },
    {
      "inputs": [
        {
          "internalType": "address",
          "name": "from",
          "type": "address"
        },
        {
          "internalType": "address",
          "name": "to",
          "type": "address"
        },
        {
          "internalType": "uint256",
          "name": "tokenId",
          "type": "uint256"
        },
        {
          "internalType": "bytes",
          "name": "_data",
          "type": "bytes"
        }
      ],
      "name": "safeTransferFrom",
      "outputs": [],
      "stateMutability": "nonpayable",
      "type": "function"
    },
    {
      "inputs": [
        {
          "internalType": "address",
          "name": "operator",
          "type": "address"
        },
        {
          "internalType": "bool",
          "name": "approved",
          "type": "bool"
        }
      ],
      "name": "setApprovalForAll",
      "outputs": [],
      "stateMutability": "nonpayable",
      "type": "function"
    },
    {
      "inputs": [
        {
          "internalType": "bytes4",
          "name": "interfaceId",
          "type": "bytes4"
        }
      ],
      "name": "supportsInterface",
      "outputs": [
        {
          "internalType": "bool",
          "name": "",
          "type": "bool"
        }
      ],
      "stateMutability": "view",
      "type": "function",
      "constant": true
    },
    {
      "inputs": [],
      "name": "symbol",
      "outputs": [
        {
          "internalType": "string",
          "name": "",
          "type": "string"
        }
      ],
      "stateMutability": "view",
      "type": "function",
      "constant": true
    },
    {
      "inputs": [
        {
          "internalType": "uint256",
          "name": "tokenId",
          "type": "uint256"
        }
      ],
      "name": "tokenURI",
      "outputs": [
        {
          "internalType": "string",
          "name": "",
          "type": "string"
        }
      ],
      "stateMutability": "view",
      "type": "function",
      "constant": true
    },
    {
      "inputs": [
        {
          "internalType": "address",
          "name": "from",
          "type": "address"
        },
        {
          "internalType": "address",
          "name": "to",
          "type": "address"
        },
        {
          "internalType": "uint256",
          "name": "tokenId",
          "type": "uint256"
        }
      ],
      "name": "transferFrom",
      "outputs": [],
      "stateMutability": "nonpayable",
      "type": "function"
    },
    {
      "inputs": [
        {
          "internalType": "address",
          "name": "newOwner",
          "type": "address"
        }
      ],
      "name": "transferOwnership",
      "outputs": [],
      "stateMutability": "nonpayable",
      "type": "function"
    },
    {
      "inputs": [
        {
          "internalType": "uint32",
          "name": "long",
          "type": "uint32"
        },
        {
          "internalType": "uint32",
          "name": "lat",
          "type": "uint32"
        },
        {
          "internalType": "uint32",
          "name": "depth",
          "type": "uint32"
        },
        {
          "internalType": "string",
          "name": "name",
          "type": "string"
        },
        {
          "internalType": "string",
          "name": "kind",
          "type": "string"
        }
      ],
      "name": "claim",
      "outputs": [],
      "stateMutability": "payable",
      "type": "function",
      "payable": true
    },
    {
      "inputs": [
        {
          "internalType": "uint32",
          "name": "long",
          "type": "uint32"
        },
        {
          "internalType": "uint32",
          "name": "lat",
          "type": "uint32"
        },
        {
          "internalType": "uint32",
          "name": "depth",
          "type": "uint32"
        }
      ],
      "name": "ownerOf",
      "outputs": [
        {
          "internalType": "address",
          "name": "",
          "type": "address"
        }
      ],
      "stateMutability": "view",
      "type": "function",
      "constant": true
    },
    {
      "inputs": [
        {
          "internalType": "uint256",
          "name": "tokenId",
          "type": "uint256"
        }
      ],
      "name": "ownerOf",
      "outputs": [
        {
          "internalType": "address",
          "name": "",
          "type": "address"
        }
      ],
      "stateMutability": "view",
      "type": "function",
      "constant": true
    },
    {
      "inputs": [
        {
          "internalType": "uint256",
          "name": "tokenId",
          "type": "uint256"
        }
      ],
      "name": "nameOf",
      "outputs": [
        {
          "internalType": "string",
          "name": "",
          "type": "string"
        }
      ],
      "stateMutability": "view",
      "type": "function",
      "constant": true
    },
    {
      "inputs": [
        {
          "internalType": "uint256",
          "name": "tokenId",
          "type": "uint256"
        }
      ],
      "name": "kindOf",
      "outputs": [
        {
          "internalType": "string",
          "name": "",
          "type": "string"
        }
      ],
      "stateMutability": "view",
      "type": "function",
      "constant": true
    }
  ],
  "bytecode": "0x60806040523480156200001157600080fd5b506040518060400160405280600681526020017f4d61726d616c00000000000000000000000000000000000000000000000000008152506040518060400160405280600481526020017f4d524d4c000000000000000000000000000000000000000000000000000000008152506200009e62000092620000d860201b60201c565b620000e060201b60201c565b8160019080519060200190620000b6929190620001a4565b508060029080519060200190620000cf929190620001a4565b505050620002b9565b600033905090565b60008060009054906101000a900473ffffffffffffffffffffffffffffffffffffffff169050816000806101000a81548173ffffffffffffffffffffffffffffffffffffffff021916908373ffffffffffffffffffffffffffffffffffffffff1602179055508173ffffffffffffffffffffffffffffffffffffffff168173ffffffffffffffffffffffffffffffffffffffff167f8be0079c531659141344cd1fd0a4f28419497f9722a3daafe3b4186f6b6457e060405160405180910390a35050565b828054620001b29062000254565b90600052602060002090601f016020900481019282620001d6576000855562000222565b82601f10620001f157805160ff191683800117855562000222565b8280016001018555821562000222579182015b828111156200022157825182559160200191906001019062000204565b5b50905062000231919062000235565b5090565b5b808211156200025057600081600090555060010162000236565b5090565b600060028204905060018216806200026d57607f821691505b602082108114156200028457620002836200028a565b5b50919050565b7f4e487b7100000000000000000000000000000000000000000000000000000000600052602260045260246000fd5b61376480620002c96000396000f3fe60806040526004361061011f5760003560e01c806370a08231116100a0578063b88d4fde11610064578063b88d4fde1461040b578063c87b56dd14610434578063e38f9ba314610471578063e985e9c51461048d578063f2fde38b146104ca5761011f565b806370a0823114610338578063715018a6146103755780638da5cb5b1461038c57806395d89b41146103b7578063a22cb465146103e25761011f565b8063134c1289116100e7578063134c12891461022f5780632345e28c1461026c57806323b872dd146102a957806342842e0e146102d25780636352211e146102fb5761011f565b806301ffc9a714610124578063051a26641461016157806306fdde031461019e578063081812fc146101c9578063095ea7b314610206575b600080fd5b34801561013057600080fd5b5061014b60048036038101906101469190612662565b6104f3565b604051610158919061300b565b60405180910390f35b34801561016d57600080fd5b50610188600480360381019061018391906126b4565b6105d5565b6040516101959190613026565b60405180910390f35b3480156101aa57600080fd5b506101b36107f8565b6040516101c09190613026565b60405180910390f35b3480156101d557600080fd5b506101f060048036038101906101eb91906126b4565b61088a565b6040516101fd9190612fa4565b60405180910390f35b34801561021257600080fd5b5061022d60048036038101906102289190612626565b61090f565b005b34801561023b57600080fd5b50610256600480360381019061025191906126dd565b610a27565b6040516102639190612fa4565b60405180910390f35b34801561027857600080fd5b50610293600480360381019061028e91906126b4565b610a45565b6040516102a09190613026565b60405180910390f35b3480156102b557600080fd5b506102d060048036038101906102cb9190612520565b610c68565b005b3480156102de57600080fd5b506102f960048036038101906102f49190612520565b610cc8565b005b34801561030757600080fd5b50610322600480360381019061031d91906126b4565b610ce8565b60405161032f9190612fa4565b60405180910390f35b34801561034457600080fd5b5061035f600480360381019061035a91906124bb565b610d9a565b60405161036c91906132a8565b60405180910390f35b34801561038157600080fd5b5061038a610e52565b005b34801561039857600080fd5b506103a1610eda565b6040516103ae9190612fa4565b60405180910390f35b3480156103c357600080fd5b506103cc610f03565b6040516103d99190613026565b60405180910390f35b3480156103ee57600080fd5b50610409600480360381019061040491906125ea565b610f95565b005b34801561041757600080fd5b50610432600480360381019061042d919061256f565b611116565b005b34801561044057600080fd5b5061045b600480360381019061045691906126b4565b611178565b6040516104689190613026565b60405180910390f35b61048b6004803603810190610486919061272c565b61121f565b005b34801561049957600080fd5b506104b460048036038101906104af91906124e4565b61135b565b6040516104c1919061300b565b60405180910390f35b3480156104d657600080fd5b506104f160048036038101906104ec91906124bb565b6113ef565b005b60007f80ac58cd000000000000000000000000000000000000000000000000000000007bffffffffffffffffffffffffffffffffffffffffffffffffffffffff1916827bffffffffffffffffffffffffffffffffffffffffffffffffffffffff191614806105be57507f5b5e139f000000000000000000000000000000000000000000000000000000007bffffffffffffffffffffffffffffffffffffffffffffffffffffffff1916827bffffffffffffffffffffffffffffffffffffffffffffffffffffffff1916145b806105ce57506105cd826114e7565b5b9050919050565b60606105e082611551565b61061f576040517f08c379a0000000000000000000000000000000000000000000000000000000008152600401610616906131a8565b60405180910390fd5b60006007600084815260200190815260200160002060405180606001604052908160008201805461064f90613542565b80601f016020809104026020016040519081016040528092919081815260200182805461067b90613542565b80156106c85780601f1061069d576101008083540402835291602001916106c8565b820191906000526020600020905b8154815290600101906020018083116106ab57829003601f168201915b505050505081526020016001820180546106e190613542565b80601f016020809104026020016040519081016040528092919081815260200182805461070d90613542565b801561075a5780601f1061072f5761010080835404028352916020019161075a565b820191906000526020600020905b81548152906001019060200180831161073d57829003601f168201915b50505050508152602001600282016040518060600160405290816000820160009054906101000a900463ffffffff1663ffffffff1663ffffffff1681526020016000820160049054906101000a900463ffffffff1663ffffffff1663ffffffff1681526020016000820160089054906101000a900463ffffffff1663ffffffff1663ffffffff16815250508152505090508060000151915050919050565b60606001805461080790613542565b80601f016020809104026020016040519081016040528092919081815260200182805461083390613542565b80156108805780601f1061085557610100808354040283529160200191610880565b820191906000526020600020905b81548152906001019060200180831161086357829003601f168201915b5050505050905090565b600061089582611551565b6108d4576040517f08c379a00000000000000000000000000000000000000000000000000000000081526004016108cb90613188565b60405180910390fd5b6005600083815260200190815260200160002060009054906101000a900473ffffffffffffffffffffffffffffffffffffffff169050919050565b600061091a82610ce8565b90508073ffffffffffffffffffffffffffffffffffffffff168373ffffffffffffffffffffffffffffffffffffffff16141561098b576040517f08c379a000000000000000000000000000000000000000000000000000000000815260040161098290613228565b60405180910390fd5b8073ffffffffffffffffffffffffffffffffffffffff166109aa6115bd565b73ffffffffffffffffffffffffffffffffffffffff1614806109d957506109d8816109d36115bd565b61135b565b5b610a18576040517f08c379a0000000000000000000000000000000000000000000000000000000008152600401610a0f90613108565b60405180910390fd5b610a2283836115c5565b505050565b6000610a3c610a3785858561167e565b610ce8565b90509392505050565b6060610a5082611551565b610a8f576040517f08c379a0000000000000000000000000000000000000000000000000000000008152600401610a86906131a8565b60405180910390fd5b600060076000848152602001908152602001600020604051806060016040529081600082018054610abf90613542565b80601f0160208091040260200160405190810160405280929190818152602001828054610aeb90613542565b8015610b385780601f10610b0d57610100808354040283529160200191610b38565b820191906000526020600020905b815481529060010190602001808311610b1b57829003601f168201915b50505050508152602001600182018054610b5190613542565b80601f0160208091040260200160405190810160405280929190818152602001828054610b7d90613542565b8015610bca5780601f10610b9f57610100808354040283529160200191610bca565b820191906000526020600020905b815481529060010190602001808311610bad57829003601f168201915b50505050508152602001600282016040518060600160405290816000820160009054906101000a900463ffffffff1663ffffffff1663ffffffff1681526020016000820160049054906101000a900463ffffffff1663ffffffff1663ffffffff1681526020016000820160089054906101000a900463ffffffff1663ffffffff1663ffffffff16815250508152505090508060200151915050919050565b610c79610c736115bd565b8261179c565b610cb8576040517f08c379a0000000000000000000000000000000000000000000000000000000008152600401610caf90613268565b60405180910390fd5b610cc383838361187a565b505050565b610ce383838360405180602001604052806000815250611116565b505050565b6000806003600084815260200190815260200160002060009054906101000a900473ffffffffffffffffffffffffffffffffffffffff169050600073ffffffffffffffffffffffffffffffffffffffff168173ffffffffffffffffffffffffffffffffffffffff161415610d91576040517f08c379a0000000000000000000000000000000000000000000000000000000008152600401610d8890613148565b60405180910390fd5b80915050919050565b60008073ffffffffffffffffffffffffffffffffffffffff168273ffffffffffffffffffffffffffffffffffffffff161415610e0b576040517f08c379a0000000000000000000000000000000000000000000000000000000008152600401610e0290613128565b60405180910390fd5b600460008373ffffffffffffffffffffffffffffffffffffffff1673ffffffffffffffffffffffffffffffffffffffff168152602001908152602001600020549050919050565b610e5a6115bd565b73ffffffffffffffffffffffffffffffffffffffff16610e78610eda565b73ffffffffffffffffffffffffffffffffffffffff1614610ece576040517f08c379a0000000000000000000000000000000000000000000000000000000008152600401610ec5906131c8565b60405180910390fd5b610ed86000611ad6565b565b60008060009054906101000a900473ffffffffffffffffffffffffffffffffffffffff16905090565b606060028054610f1290613542565b80601f0160208091040260200160405190810160405280929190818152602001828054610f3e90613542565b8015610f8b5780601f10610f6057610100808354040283529160200191610f8b565b820191906000526020600020905b815481529060010190602001808311610f6e57829003601f168201915b5050505050905090565b610f9d6115bd565b73ffffffffffffffffffffffffffffffffffffffff168273ffffffffffffffffffffffffffffffffffffffff16141561100b576040517f08c379a0000000000000000000000000000000000000000000000000000000008152600401611002906130c8565b60405180910390fd5b80600660006110186115bd565b73ffffffffffffffffffffffffffffffffffffffff1673ffffffffffffffffffffffffffffffffffffffff16815260200190815260200160002060008473ffffffffffffffffffffffffffffffffffffffff1673ffffffffffffffffffffffffffffffffffffffff16815260200190815260200160002060006101000a81548160ff0219169083151502179055508173ffffffffffffffffffffffffffffffffffffffff166110c56115bd565b73ffffffffffffffffffffffffffffffffffffffff167f17307eab39ab6107e8899845ad3d59bd9653f200f220920489ca2b5937696c318360405161110a919061300b565b60405180910390a35050565b6111276111216115bd565b8361179c565b611166576040517f08c379a000000000000000000000000000000000000000000000000000000000815260040161115d90613268565b60405180910390fd5b61117284848484611b9a565b50505050565b606061118382611551565b6111c2576040517f08c379a00000000000000000000000000000000000000000000000000000000081526004016111b990613208565b60405180910390fd5b60006111cc611bf6565b905060008151116111ec5760405180602001604052806000815250611217565b806111f684611c0d565b604051602001611207929190612f80565b6040516020818303038152906040525b915050919050565b66354a6ba7a180003414611268576040517f08c379a000000000000000000000000000000000000000000000000000000000815260040161125f90613288565b60405180910390fd5b6112fd87878787878080601f016020809104026020016040519081016040528093929190818152602001838380828437600081840152601f19601f8201169050808301925050505050505086868080601f016020809104026020016040519081016040528093929190818152602001838380828437600081840152601f19601f82011690508083019250505050505050611dba565b611305610eda565b73ffffffffffffffffffffffffffffffffffffffff166108fc66354a6ba7a180009081150290604051600060405180830381858888f19350505050158015611351573d6000803e3d6000fd5b5050505050505050565b6000600660008473ffffffffffffffffffffffffffffffffffffffff1673ffffffffffffffffffffffffffffffffffffffff16815260200190815260200160002060008373ffffffffffffffffffffffffffffffffffffffff1673ffffffffffffffffffffffffffffffffffffffff16815260200190815260200160002060009054906101000a900460ff16905092915050565b6113f76115bd565b73ffffffffffffffffffffffffffffffffffffffff16611415610eda565b73ffffffffffffffffffffffffffffffffffffffff161461146b576040517f08c379a0000000000000000000000000000000000000000000000000000000008152600401611462906131c8565b60405180910390fd5b600073ffffffffffffffffffffffffffffffffffffffff168173ffffffffffffffffffffffffffffffffffffffff1614156114db576040517f08c379a00000000000000000000000000000000000000000000000000000000081526004016114d290613068565b60405180910390fd5b6114e481611ad6565b50565b60007f01ffc9a7000000000000000000000000000000000000000000000000000000007bffffffffffffffffffffffffffffffffffffffffffffffffffffffff1916827bffffffffffffffffffffffffffffffffffffffffffffffffffffffff1916149050919050565b60008073ffffffffffffffffffffffffffffffffffffffff166003600084815260200190815260200160002060009054906101000a900473ffffffffffffffffffffffffffffffffffffffff1673ffffffffffffffffffffffffffffffffffffffff1614159050919050565b600033905090565b816005600083815260200190815260200160002060006101000a81548173ffffffffffffffffffffffffffffffffffffffff021916908373ffffffffffffffffffffffffffffffffffffffff160217905550808273ffffffffffffffffffffffffffffffffffffffff1661163883610ce8565b73ffffffffffffffffffffffffffffffffffffffff167f8c5be1e5ebec7d5bd14f71427d1e84f3dd0314c0f7b2291e5b200ac8c7c3b92560405160405180910390a45050565b6000806103e7905060006103e7905060006103e7905060008763ffffffff16101580156116b2575060008663ffffffff1610155b80156116c5575060008563ffffffff1610155b80156116dd57508263ffffffff168763ffffffff1611155b80156116f557508163ffffffff168663ffffffff1611155b801561170d57508063ffffffff168563ffffffff1611155b61174c576040517f08c379a000000000000000000000000000000000000000000000000000000000815260040161174390613248565b60405180910390fd5b8463ffffffff166103e88763ffffffff1661176791906133ee565b620f42408963ffffffff1661177c91906133ee565b6117869190613367565b6117909190613367565b93505050509392505050565b60006117a782611551565b6117e6576040517f08c379a00000000000000000000000000000000000000000000000000000000081526004016117dd906130e8565b60405180910390fd5b60006117f183610ce8565b90508073ffffffffffffffffffffffffffffffffffffffff168473ffffffffffffffffffffffffffffffffffffffff16148061186057508373ffffffffffffffffffffffffffffffffffffffff166118488461088a565b73ffffffffffffffffffffffffffffffffffffffff16145b806118715750611870818561135b565b5b91505092915050565b8273ffffffffffffffffffffffffffffffffffffffff1661189a82610ce8565b73ffffffffffffffffffffffffffffffffffffffff16146118f0576040517f08c379a00000000000000000000000000000000000000000000000000000000081526004016118e7906131e8565b60405180910390fd5b600073ffffffffffffffffffffffffffffffffffffffff168273ffffffffffffffffffffffffffffffffffffffff161415611960576040517f08c379a0000000000000000000000000000000000000000000000000000000008152600401611957906130a8565b60405180910390fd5b61196b838383611ef2565b6119766000826115c5565b6001600460008573ffffffffffffffffffffffffffffffffffffffff1673ffffffffffffffffffffffffffffffffffffffff16815260200190815260200160002060008282546119c69190613448565b925050819055506001600460008473ffffffffffffffffffffffffffffffffffffffff1673ffffffffffffffffffffffffffffffffffffffff1681526020019081526020016000206000828254611a1d9190613367565b92505081905550816003600083815260200190815260200160002060006101000a81548173ffffffffffffffffffffffffffffffffffffffff021916908373ffffffffffffffffffffffffffffffffffffffff160217905550808273ffffffffffffffffffffffffffffffffffffffff168473ffffffffffffffffffffffffffffffffffffffff167fddf252ad1be2c89b69c2b068fc378daa952ba7f163c4a11628f55a4df523b3ef60405160405180910390a4505050565b60008060009054906101000a900473ffffffffffffffffffffffffffffffffffffffff169050816000806101000a81548173ffffffffffffffffffffffffffffffffffffffff021916908373ffffffffffffffffffffffffffffffffffffffff1602179055508173ffffffffffffffffffffffffffffffffffffffff168173ffffffffffffffffffffffffffffffffffffffff167f8be0079c531659141344cd1fd0a4f28419497f9722a3daafe3b4186f6b6457e060405160405180910390a35050565b611ba584848461187a565b611bb184848484611ef7565b611bf0576040517f08c379a0000000000000000000000000000000000000000000000000000000008152600401611be790613048565b60405180910390fd5b50505050565b606060405180602001604052806000815250905090565b60606000821415611c55576040518060400160405280600181526020017f30000000000000000000000000000000000000000000000000000000000000008152509050611db5565b600082905060005b60008214611c87578080611c7090613574565b915050600a82611c8091906133bd565b9150611c5d565b60008167ffffffffffffffff811115611cc9577f4e487b7100000000000000000000000000000000000000000000000000000000600052604160045260246000fd5b6040519080825280601f01601f191660200182016040528015611cfb5781602001600182028036833780820191505090505b5090505b60008514611dae57600182611d149190613448565b9150600a85611d2391906135bd565b6030611d2f9190613367565b60f81b818381518110611d6b577f4e487b7100000000000000000000000000000000000000000000000000000000600052603260045260246000fd5b60200101907effffffffffffffffffffffffffffffffffffffffffffffffffffffffffffff1916908160001a905350600a85611da791906133bd565b9450611cff565b8093505050505b919050565b6000611dc786868661167e565b9050604051806060016040528084815260200183815260200160405180606001604052808963ffffffff1681526020018863ffffffff1681526020018763ffffffff16815250815250600760008381526020019081526020016000206000820151816000019080519060200190611e3f9291906122e8565b506020820151816001019080519060200190611e5c9291906122e8565b5060408201518160020160008201518160000160006101000a81548163ffffffff021916908363ffffffff16021790555060208201518160000160046101000a81548163ffffffff021916908363ffffffff16021790555060408201518160000160086101000a81548163ffffffff021916908363ffffffff1602179055505050905050611eea338261208e565b505050505050565b505050565b6000611f188473ffffffffffffffffffffffffffffffffffffffff166120ac565b15612081578373ffffffffffffffffffffffffffffffffffffffff1663150b7a02611f416115bd565b8786866040518563ffffffff1660e01b8152600401611f639493929190612fbf565b602060405180830381600087803b158015611f7d57600080fd5b505af1925050508015611fae57506040513d601f19601f82011682018060405250810190611fab919061268b565b60015b612031573d8060008114611fde576040519150601f19603f3d011682016040523d82523d6000602084013e611fe3565b606091505b50600081511415612029576040517f08c379a000000000000000000000000000000000000000000000000000000000815260040161202090613048565b60405180910390fd5b805181602001fd5b63150b7a0260e01b7bffffffffffffffffffffffffffffffffffffffffffffffffffffffff1916817bffffffffffffffffffffffffffffffffffffffffffffffffffffffff191614915050612086565b600190505b949350505050565b6120a88282604051806020016040528060008152506120bf565b5050565b600080823b905060008111915050919050565b6120c9838361211a565b6120d66000848484611ef7565b612115576040517f08c379a000000000000000000000000000000000000000000000000000000000815260040161210c90613048565b60405180910390fd5b505050565b600073ffffffffffffffffffffffffffffffffffffffff168273ffffffffffffffffffffffffffffffffffffffff16141561218a576040517f08c379a000000000000000000000000000000000000000000000000000000000815260040161218190613168565b60405180910390fd5b61219381611551565b156121d3576040517f08c379a00000000000000000000000000000000000000000000000000000000081526004016121ca90613088565b60405180910390fd5b6121df60008383611ef2565b6001600460008473ffffffffffffffffffffffffffffffffffffffff1673ffffffffffffffffffffffffffffffffffffffff168152602001908152602001600020600082825461222f9190613367565b92505081905550816003600083815260200190815260200160002060006101000a81548173ffffffffffffffffffffffffffffffffffffffff021916908373ffffffffffffffffffffffffffffffffffffffff160217905550808273ffffffffffffffffffffffffffffffffffffffff16600073ffffffffffffffffffffffffffffffffffffffff167fddf252ad1be2c89b69c2b068fc378daa952ba7f163c4a11628f55a4df523b3ef60405160405180910390a45050565b8280546122f490613542565b90600052602060002090601f016020900481019282612316576000855561235d565b82601f1061232f57805160ff191683800117855561235d565b8280016001018555821561235d579182015b8281111561235c578251825591602001919060010190612341565b5b50905061236a919061236e565b5090565b5b8082111561238757600081600090555060010161236f565b5090565b600061239e612399846132f4565b6132c3565b9050828152602081018484840111156123b657600080fd5b6123c1848285613500565b509392505050565b6000813590506123d8816136bb565b92915050565b6000813590506123ed816136d2565b92915050565b600081359050612402816136e9565b92915050565b600081519050612417816136e9565b92915050565b600082601f83011261242e57600080fd5b813561243e84826020860161238b565b91505092915050565b60008083601f84011261245957600080fd5b8235905067ffffffffffffffff81111561247257600080fd5b60208301915083600182028301111561248a57600080fd5b9250929050565b6000813590506124a081613700565b92915050565b6000813590506124b581613717565b92915050565b6000602082840312156124cd57600080fd5b60006124db848285016123c9565b91505092915050565b600080604083850312156124f757600080fd5b6000612505858286016123c9565b9250506020612516858286016123c9565b9150509250929050565b60008060006060848603121561253557600080fd5b6000612543868287016123c9565b9350506020612554868287016123c9565b925050604061256586828701612491565b9150509250925092565b6000806000806080858703121561258557600080fd5b6000612593878288016123c9565b94505060206125a4878288016123c9565b93505060406125b587828801612491565b925050606085013567ffffffffffffffff8111156125d257600080fd5b6125de8782880161241d565b91505092959194509250565b600080604083850312156125fd57600080fd5b600061260b858286016123c9565b925050602061261c858286016123de565b9150509250929050565b6000806040838503121561263957600080fd5b6000612647858286016123c9565b925050602061265885828601612491565b9150509250929050565b60006020828403121561267457600080fd5b6000612682848285016123f3565b91505092915050565b60006020828403121561269d57600080fd5b60006126ab84828501612408565b91505092915050565b6000602082840312156126c657600080fd5b60006126d484828501612491565b91505092915050565b6000806000606084860312156126f257600080fd5b6000612700868287016124a6565b9350506020612711868287016124a6565b9250506040612722868287016124a6565b9150509250925092565b600080600080600080600060a0888a03121561274757600080fd5b60006127558a828b016124a6565b97505060206127668a828b016124a6565b96505060406127778a828b016124a6565b955050606088013567ffffffffffffffff81111561279457600080fd5b6127a08a828b01612447565b9450945050608088013567ffffffffffffffff8111156127bf57600080fd5b6127cb8a828b01612447565b925092505092959891949750929550565b6127e58161347c565b82525050565b6127f48161348e565b82525050565b600061280582613324565b61280f818561333a565b935061281f81856020860161350f565b612828816136aa565b840191505092915050565b600061283e8261332f565b612848818561334b565b935061285881856020860161350f565b612861816136aa565b840191505092915050565b60006128778261332f565b612881818561335c565b935061289181856020860161350f565b80840191505092915050565b60006128aa60328361334b565b91507f4552433732313a207472616e7366657220746f206e6f6e20455243373231526560008301527f63656976657220696d706c656d656e74657200000000000000000000000000006020830152604082019050919050565b600061291060268361334b565b91507f4f776e61626c653a206e6577206f776e657220697320746865207a65726f206160008301527f64647265737300000000000000000000000000000000000000000000000000006020830152604082019050919050565b6000612976601c8361334b565b91507f4552433732313a20746f6b656e20616c7265616479206d696e746564000000006000830152602082019050919050565b60006129b660248361334b565b91507f4552433732313a207472616e7366657220746f20746865207a65726f2061646460008301527f72657373000000000000000000000000000000000000000000000000000000006020830152604082019050919050565b6000612a1c60198361334b565b91507f4552433732313a20617070726f766520746f2063616c6c6572000000000000006000830152602082019050919050565b6000612a5c602c8361334b565b91507f4552433732313a206f70657261746f7220717565727920666f72206e6f6e657860008301527f697374656e7420746f6b656e00000000000000000000000000000000000000006020830152604082019050919050565b6000612ac260388361334b565b91507f4552433732313a20617070726f76652063616c6c6572206973206e6f74206f7760008301527f6e6572206e6f7220617070726f76656420666f7220616c6c00000000000000006020830152604082019050919050565b6000612b28602a8361334b565b91507f4552433732313a2062616c616e636520717565727920666f7220746865207a6560008301527f726f2061646472657373000000000000000000000000000000000000000000006020830152604082019050919050565b6000612b8e60298361334b565b91507f4552433732313a206f776e657220717565727920666f72206e6f6e657869737460008301527f656e7420746f6b656e00000000000000000000000000000000000000000000006020830152604082019050919050565b6000612bf460208361334b565b91507f4552433732313a206d696e7420746f20746865207a65726f20616464726573736000830152602082019050919050565b6000612c34602c8361334b565b91507f4552433732313a20617070726f76656420717565727920666f72206e6f6e657860008301527f697374656e7420746f6b656e00000000000000000000000000000000000000006020830152604082019050919050565b6000612c9a60138361334b565b91507f746f6b656e206973206e6f74206d696e746564000000000000000000000000006000830152602082019050919050565b6000612cda60208361334b565b91507f4f776e61626c653a2063616c6c6572206973206e6f7420746865206f776e65726000830152602082019050919050565b6000612d1a60298361334b565b91507f4552433732313a207472616e73666572206f6620746f6b656e2074686174206960008301527f73206e6f74206f776e00000000000000000000000000000000000000000000006020830152604082019050919050565b6000612d80602f8361334b565b91507f4552433732314d657461646174613a2055524920717565727920666f72206e6f60008301527f6e6578697374656e7420746f6b656e00000000000000000000000000000000006020830152604082019050919050565b6000612de660218361334b565b91507f4552433732313a20617070726f76616c20746f2063757272656e74206f776e6560008301527f72000000000000000000000000000000000000000000000000000000000000006020830152604082019050919050565b6000612e4c603c8361334b565b91507f6c6f6e6769747564652c206c617469747564652c2064657074682073686f756c60008301527f6420626520696e2072616e676520283e3d30202626203c3130303029000000006020830152604082019050919050565b6000612eb260318361334b565b91507f4552433732313a207472616e736665722063616c6c6572206973206e6f74206f60008301527f776e6572206e6f7220617070726f7665640000000000000000000000000000006020830152604082019050919050565b6000612f1860238361334b565b91507f636c61696d696e672061204d61726d616c20636f73747320302e30313520657460008301527f68657200000000000000000000000000000000000000000000000000000000006020830152604082019050919050565b612f7a816134e6565b82525050565b6000612f8c828561286c565b9150612f98828461286c565b91508190509392505050565b6000602082019050612fb960008301846127dc565b92915050565b6000608082019050612fd460008301876127dc565b612fe160208301866127dc565b612fee6040830185612f71565b818103606083015261300081846127fa565b905095945050505050565b600060208201905061302060008301846127eb565b92915050565b600060208201905081810360008301526130408184612833565b905092915050565b600060208201905081810360008301526130618161289d565b9050919050565b6000602082019050818103600083015261308181612903565b9050919050565b600060208201905081810360008301526130a181612969565b9050919050565b600060208201905081810360008301526130c1816129a9565b9050919050565b600060208201905081810360008301526130e181612a0f565b9050919050565b6000602082019050818103600083015261310181612a4f565b9050919050565b6000602082019050818103600083015261312181612ab5565b9050919050565b6000602082019050818103600083015261314181612b1b565b9050919050565b6000602082019050818103600083015261316181612b81565b9050919050565b6000602082019050818103600083015261318181612be7565b9050919050565b600060208201905081810360008301526131a181612c27565b9050919050565b600060208201905081810360008301526131c181612c8d565b9050919050565b600060208201905081810360008301526131e181612ccd565b9050919050565b6000602082019050818103600083015261320181612d0d565b9050919050565b6000602082019050818103600083015261322181612d73565b9050919050565b6000602082019050818103600083015261324181612dd9565b9050919050565b6000602082019050818103600083015261326181612e3f565b9050919050565b6000602082019050818103600083015261328181612ea5565b9050919050565b600060208201905081810360008301526132a181612f0b565b9050919050565b60006020820190506132bd6000830184612f71565b92915050565b6000604051905081810181811067ffffffffffffffff821117156132ea576132e961367b565b5b8060405250919050565b600067ffffffffffffffff82111561330f5761330e61367b565b5b601f19601f8301169050602081019050919050565b600081519050919050565b600081519050919050565b600082825260208201905092915050565b600082825260208201905092915050565b600081905092915050565b6000613372826134e6565b915061337d836134e6565b9250827fffffffffffffffffffffffffffffffffffffffffffffffffffffffffffffffff038211156133b2576133b16135ee565b5b828201905092915050565b60006133c8826134e6565b91506133d3836134e6565b9250826133e3576133e261361d565b5b828204905092915050565b60006133f9826134e6565b9150613404836134e6565b9250817fffffffffffffffffffffffffffffffffffffffffffffffffffffffffffffffff048311821515161561343d5761343c6135ee565b5b828202905092915050565b6000613453826134e6565b915061345e836134e6565b925082821015613471576134706135ee565b5b828203905092915050565b6000613487826134c6565b9050919050565b60008115159050919050565b60007fffffffff0000000000000000000000000000000000000000000000000000000082169050919050565b600073ffffffffffffffffffffffffffffffffffffffff82169050919050565b6000819050919050565b600063ffffffff82169050919050565b82818337600083830152505050565b60005b8381101561352d578082015181840152602081019050613512565b8381111561353c576000848401525b50505050565b6000600282049050600182168061355a57607f821691505b6020821081141561356e5761356d61364c565b5b50919050565b600061357f826134e6565b91507fffffffffffffffffffffffffffffffffffffffffffffffffffffffffffffffff8214156135b2576135b16135ee565b5b600182019050919050565b60006135c8826134e6565b91506135d3836134e6565b9250826135e3576135e261361d565b5b828206905092915050565b7f4e487b7100000000000000000000000000000000000000000000000000000000600052601160045260246000fd5b7f4e487b7100000000000000000000000000000000000000000000000000000000600052601260045260246000fd5b7f4e487b7100000000000000000000000000000000000000000000000000000000600052602260045260246000fd5b7f4e487b7100000000000000000000000000000000000000000000000000000000600052604160045260246000fd5b6000601f19601f8301169050919050565b6136c48161347c565b81146136cf57600080fd5b50565b6136db8161348e565b81146136e657600080fd5b50565b6136f28161349a565b81146136fd57600080fd5b50565b613709816134e6565b811461371457600080fd5b50565b613720816134f0565b811461372b57600080fd5b5056fea2646970667358221220fd4a3fc6d684e855d77d604cafeec10c6b28a0b7b43462d770363c3774fd6ed764736f6c63430008000033",
  "immutableReferences": {},
  "source": "// SPDX-License-Identifier: MIT\npragma solidity >=0.8.0;\n\nimport \"@openzeppelin/contracts/access/Ownable.sol\";\nimport \"@openzeppelin/contracts/token/ERC721/ERC721.sol\";\n\ncontract Marmal is Ownable, ERC721{\n\n    // TODO add tokenURI to pass valid marmal\n\n    // Coordinate of where a Marmal is found\n    struct Coord {\n        uint32 long; // longitude\n        uint32 lat; // latitude\n        uint32 depth; // depth\n    }\n\n    // Super MetaData of a Marmal\n    struct MetaData {\n        string name;\n        string kind;\n        Coord found;\n    }\n\n    mapping(uint256 => MetaData) id_to_mrml;\n\n    constructor() ERC721(\"Marmal\", \"MRML\") {}\n\n    function getTokenId(uint32 long, uint32 lat, uint32 depth) pure internal returns(uint256) {\n        uint32 long_max = 999;\n        uint32 lat_max = 999;\n        uint32 depth_max = 999;\n\n        require(long>=0 &&lat>=0 &&depth>=0 &&long<=long_max&&lat<=lat_max&&depth<=depth_max,\n        \"longitude, latitude, depth should be in range (>=0 && <1000)\");\n        return uint256(long) * (10**6) + uint256(lat) * (10**3) + uint256(depth);\n    }\n\n    // mint MRML token to ethereum blockchain\n    function mint(uint32 long, uint32 lat, uint32 depth, string memory name, string memory kind) internal {\n        uint256 tokenId = getTokenId(long, lat, depth);\n\n        // store id to metadata mapping\n        id_to_mrml[tokenId] = MetaData(name, kind, Coord(long, lat, depth));\n\n        _safeMint(msg.sender, tokenId);\n    }\n\n    // claim MRML by sender\n    function claim(uint32 long, uint32 lat, uint32 depth, string calldata name, string calldata kind) external payable {\n        require(msg.value == 0.015 ether, \"claiming a Marmal costs 0.015 ether\");\n\n        mint(long, lat, depth, name, kind);\n        payable(owner()).transfer(0.015 ether);\n    }\n\n    function ownerOf(uint32 long, uint32 lat, uint32 depth) public view returns(address) {\n        return ownerOf(getTokenId(long, lat, depth));\n    }\n\n    function nameOf(uint256 tokenId) public view returns(string memory) {\n        require(_exists(tokenId), \"token is not minted\");\n\n        MetaData memory mrml = id_to_mrml[tokenId];\n        return mrml.name;\n    }\n\n    function kindOf(uint256 tokenId) public view returns(string memory) {\n        require(_exists(tokenId), \"token is not minted\");\n\n        MetaData memory mrml = id_to_mrml[tokenId];\n        return mrml.kind;\n    }\n}",
  "sourcePath": "/home/litcoderr/project/BlueOrange-Studios/Funnel/contracts/Marmals.sol",
  "compiler": {
    "name": "solc",
    "version": "0.8.0+commit.c7dfd78e.Emscripten.clang"
  },
  "schemaVersion": "3.4.3",
  "updatedAt": "2021-09-15T13:19:10.564Z",
  "networkType": "ethereum",
  "devdoc": {
    "kind": "dev",
    "methods": {
      "approve(address,uint256)": {
        "details": "See {IERC721-approve}."
      },
      "balanceOf(address)": {
        "details": "See {IERC721-balanceOf}."
      },
      "getApproved(uint256)": {
        "details": "See {IERC721-getApproved}."
      },
      "isApprovedForAll(address,address)": {
        "details": "See {IERC721-isApprovedForAll}."
      },
      "name()": {
        "details": "See {IERC721Metadata-name}."
      },
      "owner()": {
        "details": "Returns the address of the current owner."
      },
      "ownerOf(uint256)": {
        "details": "See {IERC721-ownerOf}."
      },
      "renounceOwnership()": {
        "details": "Leaves the contract without owner. It will not be possible to call `onlyOwner` functions anymore. Can only be called by the current owner. NOTE: Renouncing ownership will leave the contract without an owner, thereby removing any functionality that is only available to the owner."
      },
      "safeTransferFrom(address,address,uint256)": {
        "details": "See {IERC721-safeTransferFrom}."
      },
      "safeTransferFrom(address,address,uint256,bytes)": {
        "details": "See {IERC721-safeTransferFrom}."
      },
      "setApprovalForAll(address,bool)": {
        "details": "See {IERC721-setApprovalForAll}."
      },
      "supportsInterface(bytes4)": {
        "details": "See {IERC165-supportsInterface}."
      },
      "symbol()": {
        "details": "See {IERC721Metadata-symbol}."
      },
      "tokenURI(uint256)": {
        "details": "See {IERC721Metadata-tokenURI}."
      },
      "transferFrom(address,address,uint256)": {
        "details": "See {IERC721-transferFrom}."
      },
      "transferOwnership(address)": {
        "details": "Transfers ownership of the contract to a new account (`newOwner`). Can only be called by the current owner."
      }
    },
    "version": 1
  },
  "userdoc": {
    "kind": "user",
    "methods": {},
    "version": 1
  }
}